{
  "contractName": "MultiPostVoting",
  "abi": [
    {
      "constant": true,
      "inputs": [
        {
          "name": "",
          "type": "uint256"
        }
      ],
      "name": "posts",
      "outputs": [
        {
          "name": "name",
          "type": "string"
        }
      ],
      "payable": false,
      "stateMutability": "view",
      "type": "function"
    },
    {
      "constant": true,
      "inputs": [],
      "name": "votingStart",
      "outputs": [
        {
          "name": "",
          "type": "uint256"
        }
      ],
      "payable": false,
      "stateMutability": "view",
      "type": "function"
    },
    {
      "constant": true,
      "inputs": [
        {
          "name": "",
          "type": "uint256"
        }
      ],
      "name": "candidates",
      "outputs": [
        {
          "name": "name",
          "type": "string"
        },
        {
          "name": "voteCount",
          "type": "uint256"
        }
      ],
      "payable": false,
      "stateMutability": "view",
      "type": "function"
    },
    {
      "constant": true,
      "inputs": [],
      "name": "votingEnd",
      "outputs": [
        {
          "name": "",
          "type": "uint256"
        }
      ],
      "payable": false,
      "stateMutability": "view",
      "type": "function"
    },
    {
      "constant": true,
      "inputs": [],
      "name": "owner",
      "outputs": [
        {
          "name": "",
          "type": "address"
        }
      ],
      "payable": false,
      "stateMutability": "view",
      "type": "function"
    },
    {
      "constant": true,
      "inputs": [
        {
          "name": "",
          "type": "address"
        }
      ],
      "name": "voters",
      "outputs": [
        {
          "name": "",
          "type": "bool"
        }
      ],
      "payable": false,
      "stateMutability": "view",
      "type": "function"
    },
    {
      "inputs": [
        {
          "name": "_owner",
          "type": "address"
        }
      ],
      "payable": false,
      "stateMutability": "nonpayable",
      "type": "constructor"
    },
    {
      "anonymous": false,
      "inputs": [
        {
          "indexed": true,
          "name": "voter",
          "type": "address"
        }
      ],
      "name": "AlreadyVoted",
      "type": "event"
    },
    {
      "anonymous": false,
      "inputs": [
        {
          "indexed": true,
          "name": "candidateIndex",
          "type": "uint256"
        },
        {
          "indexed": false,
          "name": "name",
          "type": "string"
        }
      ],
      "name": "CandidateAdded",
      "type": "event"
    },
    {
      "anonymous": false,
      "inputs": [
        {
          "indexed": true,
          "name": "electionId",
          "type": "uint256"
        },
        {
          "indexed": false,
          "name": "postNames",
          "type": "string[]"
        }
      ],
      "name": "ElectionCreated",
      "type": "event"
    },
    {
      "anonymous": false,
      "inputs": [
        {
          "indexed": true,
          "name": "voter",
          "type": "address"
        },
        {
          "indexed": true,
          "name": "postIndex",
          "type": "uint256"
        },
        {
          "indexed": true,
          "name": "candidateIndex",
          "type": "uint256"
        }
      ],
      "name": "VoteCast",
      "type": "event"
    },
    {
      "constant": false,
      "inputs": [
        {
          "name": "_postNames",
          "type": "string[]"
        },
        {
          "name": "_candidateNames",
          "type": "string[][]"
        },
        {
          "name": "_durationInMinutes",
          "type": "uint256"
        }
      ],
      "name": "createElection",
      "outputs": [],
      "payable": false,
      "stateMutability": "nonpayable",
      "type": "function"
    },
    {
      "constant": false,
      "inputs": [
        {
          "name": "_postIndex",
          "type": "uint256"
        },
        {
          "name": "_name",
          "type": "string"
        }
      ],
      "name": "addCandidate",
      "outputs": [],
      "payable": false,
      "stateMutability": "nonpayable",
      "type": "function"
    },
    {
      "constant": false,
      "inputs": [
        {
          "name": "_postIndex",
          "type": "uint256"
        },
        {
          "name": "_candidateIndex",
          "type": "uint256"
        }
      ],
      "name": "vote",
      "outputs": [],
      "payable": false,
      "stateMutability": "nonpayable",
      "type": "function"
    },
    {
      "constant": true,
      "inputs": [],
      "name": "getPostCount",
      "outputs": [
        {
          "name": "",
          "type": "uint256"
        }
      ],
      "payable": false,
      "stateMutability": "view",
      "type": "function"
    },
    {
      "constant": true,
      "inputs": [
        {
          "name": "_postIndex",
          "type": "uint256"
        }
      ],
      "name": "getCandidateCount",
      "outputs": [
        {
          "name": "",
          "type": "uint256"
        }
      ],
      "payable": false,
      "stateMutability": "view",
      "type": "function"
    },
    {
      "constant": true,
      "inputs": [
        {
          "name": "_postIndex",
          "type": "uint256"
        },
        {
          "name": "_candidateIndex",
          "type": "uint256"
        }
      ],
      "name": "getCandidate",
      "outputs": [
        {
          "name": "name",
          "type": "string"
        },
        {
          "name": "voteCount",
          "type": "uint256"
        }
      ],
      "payable": false,
      "stateMutability": "view",
      "type": "function"
    },
    {
      "constant": true,
      "inputs": [
        {
          "name": "_postIndex",
          "type": "uint256"
        },
        {
          "name": "_candidateIndex",
          "type": "uint256"
        }
      ],
      "name": "getVoteCount",
      "outputs": [
        {
          "name": "",
          "type": "uint256"
        }
      ],
      "payable": false,
      "stateMutability": "view",
      "type": "function"
    }
  ],
  "bytecode": "0x60806040523480156200001157600080fd5b5060405160208062001bdd833981018060405262000033919081019062000091565b80600260006101000a81548173ffffffffffffffffffffffffffffffffffffffff021916908373ffffffffffffffffffffffffffffffffffffffff16021790555050620000f1565b6000620000898251620000dd565b905092915050565b600060208284031215620000a457600080fd5b6000620000b4848285016200007b565b91505092915050565b600073ffffffffffffffffffffffffffffffffffffffff82169050919050565b6000620000ea82620000bd565b9050919050565b611adc80620001016000396000f3fe6080604052600436106100bf576000357c0100000000000000000000000000000000000000000000000000000000900480630b1e7f83146100c4578063101158af146101015780631750a3d01461012c5780631a9f459c1461015557806326f6a2aa1461017e5780633477ee2e146101bb5780634bd46448146101f957806385a38635146102375780638da5cb5b14610262578063a3ec138d1461028d578063b384abef146102ca578063bcc95407146102f3578063de2e19a01461031e575b600080fd5b3480156100d057600080fd5b506100eb60048036036100e6919081019061143b565b61035b565b6040516100f89190611759565b60405180910390f35b34801561010d57600080fd5b50610116610420565b60405161012391906118bd565b60405180910390f35b34801561013857600080fd5b50610153600480360361014e9190810190611464565b610426565b005b34801561016157600080fd5b5061017c600480360361017791908101906113bc565b6105ff565b005b34801561018a57600080fd5b506101a560048036036101a0919081019061143b565b61090d565b6040516101b291906118bd565b60405180910390f35b3480156101c757600080fd5b506101e260048036036101dd919081019061143b565b610982565b6040516101f09291906117cd565b60405180910390f35b34801561020557600080fd5b50610220600480360361021b91908101906114b8565b610a4d565b60405161022e92919061179d565b60405180910390f35b34801561024357600080fd5b5061024c610c27565b60405161025991906118bd565b60405180910390f35b34801561026e57600080fd5b50610277610c2d565b6040516102849190611723565b60405180910390f35b34801561029957600080fd5b506102b460048036036102af9190810190611393565b610c53565b6040516102c1919061173e565b60405180910390f35b3480156102d657600080fd5b506102f160048036036102ec91908101906114b8565b610c73565b005b3480156102ff57600080fd5b50610308610f49565b60405161031591906118bd565b60405180910390f35b34801561032a57600080fd5b50610345600480360361034091908101906114b8565b610f55565b60405161035291906118bd565b60405180910390f35b60008181548110151561036a57fe5b9060005260206000209060020201600091509050806000018054600181600116156101000203166002900480601f0160208091040260200160405190810160405280929190818152602001828054600181600116156101000203166002900480156104165780601f106103eb57610100808354040283529160200191610416565b820191906000526020600020905b8154815290600101906020018083116103f957829003601f168201915b5050505050905081565b60045481565b600260009054906101000a900473ffffffffffffffffffffffffffffffffffffffff1673ffffffffffffffffffffffffffffffffffffffff163373ffffffffffffffffffffffffffffffffffffffff161415156104b8576040517f08c379a00000000000000000000000000000000000000000000000000000000081526004016104af9061187d565b60405180910390fd5b60008054905082101515610501576040517f08c379a00000000000000000000000000000000000000000000000000000000081526004016104f89061181d565b60405180910390fd5b6000600180549050905060016040805190810160405280848152602001600081525090806001815401808255809150509060018203906000526020600020906002020160009091929091909150600082015181600001908051906020019061056a92919061106b565b506020820151816001015550505060008381548110151561058757fe5b9060005260206000209060020201600101819080600181540180825580915050906001820390600052602060002001600090919290919091505550807fe83b2a43e7e82d975c8a0a6d2f045153c869e111136a34d1889ab7b598e396a3836040516105f2919061177b565b60405180910390a2505050565b600260009054906101000a900473ffffffffffffffffffffffffffffffffffffffff1673ffffffffffffffffffffffffffffffffffffffff163373ffffffffffffffffffffffffffffffffffffffff16141515610691576040517f08c379a00000000000000000000000000000000000000000000000000000000081526004016106889061187d565b60405180910390fd5b815183511415156106d7576040517f08c379a00000000000000000000000000000000000000000000000000000000081526004016106ce9061185d565b60405180910390fd5b60008090505b83518110156108f457606083828151811015156106f657fe5b906020019060200201519050606081516040519080825280602002602001820160405280156107345781602001602082028038833980820191505090505b50905060008090505b825181101561084e576000600180549050905060016040805190810160405280868581518110151561076b57fe5b90602001906020020151815260200160008152509080600181540180825580915050906001820390600052602060002090600202016000909192909190915060008201518160000190805190602001906107c692919061106b565b50602082015181600101555050508083838151811015156107e357fe5b9060200190602002018181525050807fe83b2a43e7e82d975c8a0a6d2f045153c869e111136a34d1889ab7b598e396a3858481518110151561082157fe5b906020019060200201516040516108389190611759565b60405180910390a250808060010191505061073d565b5060006040805190810160405280888681518110151561086a57fe5b906020019060200201518152602001838152509080600181540180825580915050906001820390600052602060002090600202016000909192909190915060008201518160000190805190602001906108c492919061106b565b5060208201518160010190805190602001906108e19291906110eb565b50505050505080806001019150506106dd565b5042600481905550603c81024201600581905550505050565b6000808054905082101515610957576040517f08c379a000000000000000000000000000000000000000000000000000000000815260040161094e9061181d565b60405180910390fd5b60008281548110151561096657fe5b9060005260206000209060020201600101805490509050919050565b60018181548110151561099157fe5b9060005260206000209060020201600091509050806000018054600181600116156101000203166002900480601f016020809104026020016040519081016040528092919081815260200182805460018160011615610100020316600290048015610a3d5780601f10610a1257610100808354040283529160200191610a3d565b820191906000526020600020905b815481529060010190602001808311610a2057829003601f168201915b5050505050908060010154905082565b60606000808054905084101515610a99576040517f08c379a0000000000000000000000000000000000000000000000000000000008152600401610a909061181d565b60405180910390fd5b600084815481101515610aa857fe5b90600052602060002090600202016001018054905083101515610b00576040517f08c379a0000000000000000000000000000000000000000000000000000000008152600401610af79061183d565b60405180910390fd5b60008085815481101515610b1057fe5b906000526020600020906002020160010184815481101515610b2e57fe5b90600052602060002001549050600181815481101515610b4a57fe5b90600052602060002090600202016000018054600181600116156101000203166002900480601f016020809104026020016040519081016040528092919081815260200182805460018160011615610100020316600290048015610bef5780601f10610bc457610100808354040283529160200191610bef565b820191906000526020600020905b815481529060010190602001808311610bd257829003601f168201915b50505050509250600181815481101515610c0557fe5b9060005260206000209060020201600101549150828292509250509250929050565b60055481565b600260009054906101000a900473ffffffffffffffffffffffffffffffffffffffff1681565b60036020528060005260406000206000915054906101000a900460ff1681565b600360003373ffffffffffffffffffffffffffffffffffffffff1673ffffffffffffffffffffffffffffffffffffffff16815260200190815260200160002060009054906101000a900460ff16151515610d02576040517f08c379a0000000000000000000000000000000000000000000000000000000008152600401610cf9906117fd565b60405180910390fd5b60008054905082101515610d4b576040517f08c379a0000000000000000000000000000000000000000000000000000000008152600401610d429061181d565b60405180910390fd5b600082815481101515610d5a57fe5b90600052602060002090600202016001018054905081101515610db2576040517f08c379a0000000000000000000000000000000000000000000000000000000008152600401610da99061183d565b60405180910390fd5b6005544211151515610df9576040517f08c379a0000000000000000000000000000000000000000000000000000000008152600401610df09061189d565b60405180910390fd5b60008083815481101515610e0957fe5b906000526020600020906002020160010182815481101515610e2757fe5b90600052602060002001549050600181815481101515610e4357fe5b9060005260206000209060020201600101600081548092919060010191905055506001600360003373ffffffffffffffffffffffffffffffffffffffff1673ffffffffffffffffffffffffffffffffffffffff16815260200190815260200160002060006101000a81548160ff0219169083151502179055503373ffffffffffffffffffffffffffffffffffffffff167fd449d674cb213019103ed0874ef5d2bc3d31fe332f9d7d55f87ff967a029c0c360405160405180910390a280833373ffffffffffffffffffffffffffffffffffffffff167fb4cfecf70861b7b150d8337780d34fb4cbc2114b5fb1fe51a5c5fca1849f727460405160405180910390a4505050565b60008080549050905090565b6000808054905083101515610f9f576040517f08c379a0000000000000000000000000000000000000000000000000000000008152600401610f969061181d565b60405180910390fd5b600083815481101515610fae57fe5b90600052602060002090600202016001018054905082101515611006576040517f08c379a0000000000000000000000000000000000000000000000000000000008152600401610ffd9061183d565b60405180910390fd5b6000808481548110151561101657fe5b90600052602060002090600202016001018381548110151561103457fe5b9060005260206000200154905060018181548110151561105057fe5b90600052602060002090600202016001015491505092915050565b828054600181600116156101000203166002900490600052602060002090601f016020900481019282601f106110ac57805160ff19168380011785556110da565b828001600101855582156110da579182015b828111156110d95782518255916020019190600101906110be565b5b5090506110e79190611138565b5090565b828054828255906000526020600020908101928215611127579160200282015b8281111561112657825182559160200191906001019061110b565b5b5090506111349190611138565b5090565b61115a91905b8082111561115657600081600090555060010161113e565b5090565b90565b60006111698235611a33565b905092915050565b600082601f830112151561118457600080fd5b813561119761119282611905565b6118d8565b9150818183526020840193506020810190508360005b838110156111dd57813586016111c388826111e7565b8452602084019350602083019250506001810190506111ad565b5050505092915050565b600082601f83011215156111fa57600080fd5b813561120d6112088261192d565b6118d8565b9150818183526020840193506020810190508360005b83811015611253578135860161123988826112d3565b845260208401935060208301925050600181019050611223565b5050505092915050565b600082601f830112151561127057600080fd5b813561128361127e82611955565b6118d8565b9150818183526020840193506020810190508360005b838110156112c957813586016112af88826112d3565b845260208401935060208301925050600181019050611299565b5050505092915050565b600082601f83011215156112e657600080fd5b81356112f96112f48261197d565b6118d8565b9150808252602083016020830185838301111561131557600080fd5b611320838284611a4f565b50505092915050565b600082601f830112151561133c57600080fd5b813561134f61134a826119a9565b6118d8565b9150808252602083016020830185838301111561136b57600080fd5b611376838284611a4f565b50505092915050565b600061138b8235611a45565b905092915050565b6000602082840312156113a557600080fd5b60006113b38482850161115d565b91505092915050565b6000806000606084860312156113d157600080fd5b600084013567ffffffffffffffff8111156113eb57600080fd5b6113f78682870161125d565b935050602084013567ffffffffffffffff81111561141457600080fd5b61142086828701611171565b92505060406114318682870161137f565b9150509250925092565b60006020828403121561144d57600080fd5b600061145b8482850161137f565b91505092915050565b6000806040838503121561147757600080fd5b60006114858582860161137f565b925050602083013567ffffffffffffffff8111156114a257600080fd5b6114ae85828601611329565b9150509250929050565b600080604083850312156114cb57600080fd5b60006114d98582860161137f565b92505060206114ea8582860161137f565b9150509250929050565b6114fd816119eb565b82525050565b61150c816119fd565b82525050565b600061151d826119e0565b808452611531816020860160208601611a5e565b61153a81611a91565b602085010191505092915050565b6000611553826119d5565b808452611567816020860160208601611a5e565b61157081611a91565b602085010191505092915050565b6000601782527f596f75206861766520616c726561647920766f7465642e0000000000000000006020830152604082019050919050565b6000601282527f496e76616c696420706f737420696e64657800000000000000000000000000006020830152604082019050919050565b6000601882527f496e76616c69642063616e64696461746520696e6465782e00000000000000006020830152604082019050919050565b6000603882527f496e76616c696420696e7075743a20506f737420616e642063616e646964617460208301527f65206e616d6573206c656e67746873206d69736d6174636800000000000000006040830152606082019050919050565b6000602682527f4f6e6c7920746865206f776e65722063616e20706572666f726d20746869732060208301527f616374696f6e00000000000000000000000000000000000000000000000000006040830152606082019050919050565b6000601082527f566f74696e672068617320656e646564000000000000000000000000000000006020830152604082019050919050565b61171d81611a29565b82525050565b600060208201905061173860008301846114f4565b92915050565b60006020820190506117536000830184611503565b92915050565b600060208201905081810360008301526117738184611548565b905092915050565b600060208201905081810360008301526117958184611512565b905092915050565b600060408201905081810360008301526117b78185611512565b90506117c66020830184611714565b9392505050565b600060408201905081810360008301526117e78185611548565b90506117f66020830184611714565b9392505050565b600060208201905081810360008301526118168161157e565b9050919050565b60006020820190508181036000830152611836816115b5565b9050919050565b60006020820190508181036000830152611856816115ec565b9050919050565b6000602082019050818103600083015261187681611623565b9050919050565b6000602082019050818103600083015261189681611680565b9050919050565b600060208201905081810360008301526118b6816116dd565b9050919050565b60006020820190506118d26000830184611714565b92915050565b6000604051905081810181811067ffffffffffffffff821117156118fb57600080fd5b8060405250919050565b600067ffffffffffffffff82111561191c57600080fd5b602082029050602081019050919050565b600067ffffffffffffffff82111561194457600080fd5b602082029050602081019050919050565b600067ffffffffffffffff82111561196c57600080fd5b602082029050602081019050919050565b600067ffffffffffffffff82111561199457600080fd5b601f19601f8301169050602081019050919050565b600067ffffffffffffffff8211156119c057600080fd5b601f19601f8301169050602081019050919050565b600081519050919050565b600081519050919050565b60006119f682611a09565b9050919050565b60008115159050919050565b600073ffffffffffffffffffffffffffffffffffffffff82169050919050565b6000819050919050565b6000611a3e82611a09565b9050919050565b6000819050919050565b82818337600083830152505050565b60005b83811015611a7c578082015181840152602081019050611a61565b83811115611a8b576000848401525b50505050565b6000601f19601f830116905091905056fea265627a7a723058203150019cba24dbb97162f98ce56d1756d37f29fdbeba139355b0b142b3440e3a6c6578706572696d656e74616cf50037",
  "source": "// SPDX-License-Identifier: MIT\r\npragma experimental ABIEncoderV2;\r\npragma solidity >=0.4.22 <0.9.0;\r\n\r\ncontract MultiPostVoting {\r\n  struct Candidate {\r\n    string name;\r\n    uint256 voteCount;\r\n  }\r\n\r\n  struct Post {\r\n    string name;\r\n    uint256[] candidateIndexes;\r\n  }\r\n\r\n  Post[] public posts;\r\n  Candidate[] public candidates;\r\n  address public owner; // Made public\r\n  mapping(address => bool) public voters;\r\n\r\n  uint256 public votingStart;\r\n  uint256 public votingEnd;\r\n\r\n  event AlreadyVoted(address indexed voter);\r\n  event CandidateAdded(uint256 indexed candidateIndex, string name);\r\n  event ElectionCreated(uint256 indexed electionId, string[] postNames);\r\n  event VoteCast(address indexed voter, uint256 indexed postIndex, uint256 indexed candidateIndex);\r\n\r\n  constructor(address _owner) public  {\r\n    owner = _owner;//make it public\r\n  }\r\n\r\n  modifier onlyOwner() {\r\n    require(msg.sender == owner, \"Only the owner can perform this action\");\r\n    _;\r\n  }\r\n\r\n  function createElection(string[] memory _postNames, string[][] memory _candidateNames, uint256 _durationInMinutes) public onlyOwner {\r\n    require(_postNames.length == _candidateNames.length, \"Invalid input: Post and candidate names lengths mismatch\");\r\n\r\n    for (uint256 i = 0; i < _postNames.length; i++) {\r\n      string[] memory postCandidates = _candidateNames[i];\r\n      uint256[] memory candidateIndexes = new uint256[](postCandidates.length);\r\n\r\n      for (uint256 j = 0; j < postCandidates.length; j++) {\r\n        uint256 candidateIndex = candidates.length;\r\n        candidates.push(Candidate({\r\n          name: postCandidates[j],\r\n          voteCount: 0\r\n        }));\r\n        candidateIndexes[j] = candidateIndex;\r\n\r\n        emit CandidateAdded(candidateIndex, postCandidates[j]); \r\n      }\r\n\r\n      posts.push(Post({\r\n        name: _postNames[i],\r\n        candidateIndexes: candidateIndexes\r\n      }));\r\n    }\r\n\r\n    votingStart = block.timestamp;\r\n    votingEnd = block.timestamp + (_durationInMinutes * 1 minutes);\r\n\r\n    // emit ElectionCreated(posts.length - 1, _postNames); \r\n  }\r\n\r\n  function addCandidate(uint256 _postIndex, string memory _name) public onlyOwner {\r\n    require(_postIndex < posts.length, \"Invalid post index\");\r\n\r\n    uint256 candidateIndex = candidates.length;\r\n    candidates.push(Candidate({\r\n      name: _name,\r\n      voteCount: 0\r\n    }));\r\n\r\n    posts[_postIndex].candidateIndexes.push(candidateIndex);\r\n\r\n    emit CandidateAdded(candidateIndex, _name); \r\n  }\r\n\r\n  function vote(uint256 _postIndex, uint256 _candidateIndex) public {\r\n    require(!voters[msg.sender], \"You have already voted.\");\r\n    require(_postIndex < posts.length, \"Invalid post index\");\r\n    require(_candidateIndex < posts[_postIndex].candidateIndexes.length, \"Invalid candidate index.\");\r\n    require(block.timestamp <= votingEnd, \"Voting has ended\");\r\n\r\n    uint256 candidateIndex = posts[_postIndex].candidateIndexes[_candidateIndex];\r\n    candidates[candidateIndex].voteCount++;\r\n    voters[msg.sender] = true;\r\n\r\n    emit AlreadyVoted(msg.sender); \r\n    emit VoteCast(msg.sender, _postIndex, candidateIndex); \r\n  }\r\n\r\n  function getPostCount() public view returns (uint256) {\r\n    return posts.length;\r\n  }\r\n\r\n  function getCandidateCount(uint256 _postIndex) public view returns (uint256) {\r\n    require(_postIndex < posts.length, \"Invalid post index\");\r\n    return posts[_postIndex].candidateIndexes.length;\r\n  }\r\n\r\n function getCandidate(uint256 _postIndex, uint256 _candidateIndex) public view returns (string memory name, uint256 voteCount) {\r\n  require(_postIndex < posts.length, \"Invalid post index\");\r\n  require(_candidateIndex < posts[_postIndex].candidateIndexes.length, \"Invalid candidate index.\");\r\n\r\n  uint256 candidateIndex = posts[_postIndex].candidateIndexes[_candidateIndex];\r\n  name = candidates[candidateIndex].name;\r\n  voteCount = candidates[candidateIndex].voteCount;\r\n\r\n  return (name, voteCount);\r\n}\r\n\r\nfunction getVoteCount(uint256 _postIndex, uint256 _candidateIndex) public view returns (uint256) {\r\n  require(_postIndex < posts.length, \"Invalid post index\");\r\n  require(_candidateIndex < posts[_postIndex].candidateIndexes.length, \"Invalid candidate index.\");\r\n\r\n  uint256 candidateIndex = posts[_postIndex].candidateIndexes[_candidateIndex];\r\n  return candidates[candidateIndex].voteCount;\r\n}\r\n}",
  "sourcePath": "D:\\De-vote\\contracts\\MultiPostVoting.sol",
  "compiler": {
    "name": "solc",
    "version": "0.5.1+commit.c8a2cb62.Emscripten.clang"
  },
  "schemaVersion": "3.4.16",
  "updatedAt": "2024-03-27T04:42:11.149Z",
  "networkType": "ethereum",
  "devdoc": {
    "methods": {}
  },
  "userdoc": {
    "methods": {}
  }
}